:100000008EC09DC09DC09BC09AC099C098C097C02B
:1000100096C095C094C093C092C091C090C000009B
:100020000000000000000000000000000000003898
:100030000000380000000000000000000000000088
:1000400000000000000000000000000000000000B0
:1000500000000000000000000000000000000000A0
:10006000000000000000000035000000000000005B
:100070000000000000000000570000000000000029
:100080000000000000000000002B58000000555345
:100090004A004E2900000000000000005400004308
:1000A000003F3D3B3C5A004442403E0F00000038B8
:1000B0002A001D10020000002C1F1E110300002E3C
:1000C0002D201205040000392F21141306000031E1
:1000D00030232215070000003224160809000033DF
:1000E0002517180B0A000034352627190C000000CC
:1000F00028001A0D00003A361C1B0000000000000A
:10010000000000000E00004F004B47000000525658
:10011000504C4D4801455900510C004946001124EE
:100120001FBECFE5D2E0DEBFCDBF21E0A0E6B0E04C
:1001300001C01D92A737B207E1F762D2EEC260CFCD
:100140001F920F920FB60F9211242F933F938F930C
:100150009F93EF93FF93B199A6C0809160008111A6
:10016000A2C080916600811108C0B09924C081E0CE
:10017000809366001092710025C0809171008830D4
:1001800080F4B09B0CC090916A0021E030E0082E12
:1001900001C0220F0A94EAF7292B20936A008F5F8F
:1001A00003C0883021F489E0809371007CC01092F4
:1001B00066001092710080916A00803F31F481E006
:1001C0008093690010926A006EC080916A008A3F35
:1001D00021F481E080936F0066C080916A008E3FB9
:1001E00021F481E0809375005EC080916A00803EBA
:1001F00021F481E08093650056C080916A00813EC1
:1002000021F481E0809363004EC0809163008823D5
:1002100051F080916A00873731F080916A00843113
:1002200011F010926300809169008823E9F08091B9
:100230006A00823121F080916A00893511F41092B0
:1002400067001092690080916A008093620080913B
:1002500065008093760010926500E0916A00F0E0FE
:10026000E958FF4F10821FC080916A00823121F04F
:1002700080916A00893521F480916A00809367003B
:1002800080916A0080936B008091650080936C0080
:100290001092650081E080937200E0916A00F0E0C6
:1002A000E958FF4F8083FF91EF919F918F913F918C
:1002B0002F910F900FBE0F901F901895BD9A089523
:1002C000C59A0895C5980895809172008823E1F336
:1002D0001092720080916A00089580E090E0FC0125
:1002E000E958FF4F108201968F3F9105C1F7109298
:1002F000660010926A0010927100109265001092D0
:10030000630010926B0010926200109260001092D5
:10031000670010926E0010926F0010927500C19AE3
:100320008BB780628BBFA99A0895F82FE62FCA0178
:100330006111EF2F68EE73E0DFD1AC0120E030E017
:100340002417350759F096B39F239E1749F082E092
:100350008A95F1F700C02F5F3F4FF2CF80E00895FC
:1003600081E0089520E031E0009739F02327AC01C7
:100370004150510984239523F7CF822F0895C198C6
:10038000B99A0895B9980895C098B89A0895B898F8
:1003900008950F931F93CF93DF93EC0142E050E059
:1003A00061E082E0C2DFEBDF87E592E00197F1F7E1
:1003B00000C00000E9DF92E09A95F1F700C0E2DFAB
:1003C0004FE050E060E082E0B0DF811102C0DFDF8B
:1003D00030C0CE01C7DF811101C0D16009E010E05B
:1003E000C0FF02C0D4DF01C0CFDF42E050E061E0D7
:1003F00082E09BDF882359F342E050E060E082E036
:1004000094DF882321F3D695C7950150110941F750
:10041000BEDF42E050E060E081E087DF982F882374
:1004200049F042E050E060E082E07FDF91E081113E
:1004300001C090E0892FDF91CF911F910F91089516
:100440001F93CF93DF931F92CDB7DEB711E01093C8
:10045000600090E069839DDF6981882321F06093CB
:100460006D0010936E00109260000F90DF91CF919D
:100470001F91089581E08093600080916D0090E06D
:1004800088DF109260000895BA9ABB9AC298C39A06
:100490000895CF93DF931F92CDB7DEB798B399231A
:1004A000E9F389830DDF28E030E0898180FF02C015
:1004B000C39A01C0C3989DE09A95F1F70000C29AD3
:1004C00095E19A95F1F70000C39A9CE09A95F1F7AF
:1004D000C29899E19A95F1F700008695215031096B
:1004E00029F7C3988DE08A95F1F70000C39A8FEC45
:1004F00097E00197F1F700C000000F90DF91CF91D6
:10050000E1CEE82F842FED3541F4909167009111F1
:1005100002C0876401C08B6418C0EE3041F4909132
:100520006700911102C08065F7CF8864F5CFF0E0D5
:10053000662319F0E25EFF4F02C0E256FF4FE491DE
:10054000EE2311F08E2BA5CF08950F931F93CF9319
:10055000DF93082F8091670091E0811101C090E046
:1005600080917300882311F021E09227C0916700E9
:10057000C11101C0C2E1992389F0809167008823ED
:1005800039F040E860E08C2FBCDFD0E011E008C01B
:1005900040E060E08C2FB5DFD1E001C0D0E010E09A
:1005A000802F77DF112311F040E003C0DD2341F0FD
:1005B00040E860E08C2FDF91CF911F910F91A1CF88
:1005C000DF91CF911F910F910895CF93962FC42F54
:1005D000882341F040E060E0892F93DF609168005C
:1005E0006C2B09C040E860E0892F8BDF6C2F609591
:1005F000809168006823609368008DEECF9120CFD2
:100600006CDE42DF5BDE78941092620010926B0029
:1006100010926800809162008823A1F180916300AC
:10062000882349F080916200873729F41092630093
:1006300084ED2FDF25C080916200883559F481E078
:1006400090916400911180E0809364006091620059
:1006500044E00EC080916200873761F481E09091A0
:100660007300911180E0809373006091620042E01A
:10067000ACDF06C0609176008091620040E841DF07
:100680001092620080916B008823E9F080916300F2
:10069000882349F080916B00873729F4109263001A
:1006A00084E5F7DE0EC080916B00883551F08091B3
:1006B0006B00873731F060916C0080916B0040E0F7
:1006C00020DF10926B0080916F00882359F0809199
:1006D0006E00882329F080916D00CCDE10926E00B0
:1006E00010926F0080917500882309F493CF1092C7
:1006F0006E00109275008ECF0024552704C0080E9E
:10070000591F880F991F009729F076956795B8F3C0
:0E0710007105B9F7802D952F0895F894FFCF4D
:00000001FF
