:100000008EC09DC09DC09BC09AC099C098C097C02B
:1000100096C095C094C093C092C091C090C01E1E5F
:100020001E1E1E1E1E1E1E1E1E1E1E1E1E1E1E1EF0
:100030001E1E1E1E1E1E1E1E1E1E1E1E1E1E1E1EE0
:100040001E1E1E1E1E1E1E1E1E1E1E1E1E1E1E1ED0
:100050001E1E1E1E1E1E1E1E1E1E1E1E1E1E1E1EC0
:100060001E1E1E1E1E1E1E1E351E1E1E1E1E1E1E99
:100070001E1E1E1E1E1E1E1E571E1E1E1E1E1E1E67
:100080001E1E1E1E1E1E1E1E1E2B581E1E1E5553DD
:100090004A1E4E291E1E1E1E1E1E1E1E1E1E1E43F4
:1000A0001E3F3D3B3C5A1E4442403E0F1E1E1E3822
:1000B0002A1E1D10021E1E1E2C1F1E11031E1E2E88
:1000C0002D201205041E1E392F211413061E1E3169
:1000D00030232215071E1E1E32241608091E1E3349
:1000E0002517180B0A1E1E34352627190C1E1E1E36
:1000F000281E1A0D1E1E3A361C1B1E1E1E1E1E1EFC
:100100001E1E1E1E0E1E1E4F1E4B471E1E1E52562C
:10011000504C4D480145591E510C1E49461E112494
:100120001FBECFE5D2E0DEBFCDBF21E0A0E6B0E04C
:1001300001C01D92A637B207E1F71AD28DC260CF77
:100140001F920F920FB60F9211242F933F938F930C
:100150009F93EF93FF93B1998EC0809160008111BE
:100160008AC080916500811108C0B09924C081E0E7
:10017000809365001092700025C0809170008830D7
:1001800080F4B09B0CC09091680021E030E0082E14
:1001900001C0220F0A94EAF7292B209368008F5F91
:1001A00003C0883021F489E08093700064C010920D
:1001B00065001092700080916800803F31F481E00A
:1001C000809367001092680056C0809168008A3F53
:1001D00021F481E080936E004EC0809168008E3FD4
:1001E00021F481E08093740046C080916800803ED5
:1001F00021F481E0809364003EC080916800813EDC
:1002000021F481E080936D0036C0809167008823DF
:10021000C9F01092670080916D00813041F08091AB
:100220006800809362008091640080937500109252
:10023000640010926D00E0916800F0E0EA58FF4F12
:10024000108219C080916D00813041F0809168006A
:10025000809369008091640080936A0010926D0021
:100260001092640081E080937100E0916800F0E0FA
:10027000EA58FF4F8083FF91EF919F918F913F91BB
:100280002F910F900FBE0F901F901895BD9A089553
:10029000C59A0895C5980895809171008823E1F367
:1002A0001092710080916800089580E090E0FC0158
:1002B000EA58FF4F108201968F3F9105C1F71092C7
:1002C0006500109268001092700010926400109205
:1002D0006D001092690010926200109260001092FE
:1002E0006C0010926E0010927400C19A8BB78062FD
:1002F0008BBFA99A089568EE73E09DD120E030E0AD
:100300002817390749F0B19B09C042E04A95F1F737
:1003100000C02F5F3F4FF4CF80E0089581E0089543
:1003200068EE73E088D120E030E02817390749F003
:10033000B19909C042E04A95F1F700C02F5F3F4FE5
:10034000F4CF80E0089581E0089568EE73E073D102
:1003500020E030E02817390749F0B09B09C042E09F
:100360004A95F1F700C02F5F3F4FF4CF80E008952A
:1003700081E0089568EE73E05ED120E030E0281758
:10038000390749F0B09909C042E04A95F1F700C039
:100390002F5F3F4FF4CF80E0089581E0089520E083
:1003A00031E0009739F02327AC01415051098423F3
:1003B0009523F7CF822F0895C198B99A0895B998D7
:1003C0000895C098B89A0895B89808950F931F9308
:1003D000CF93DF93EC0182E090E0A2DFEDDF87E5D1
:1003E00092E00197F1F700C00000EBDF92E09A95F0
:1003F000F1F700C0E4DF8FE090E07DDF811102C003
:10040000E3DF28C0CE01CBDF811101C0D16009E05C
:1004100010E0C0FF02C0D8DF01C0D3DF82E090E06F
:100420007FDF882369F382E090E065DF882341F372
:10043000D695C7950150110961F7C6DF82E090E0BB
:1004400084DF982F882339F082E090E054DF91E038
:10045000811101C090E0892FDF91CF911F910F9101
:1004600008951F93CF93DF931F92CDB7DEB711E0AE
:100470001093600090E06983A9DF6981882321F0EF
:1004800060936B0010936C00109260000F90DF91EE
:10049000CF911F91089581E08093600080916B005F
:1004A00090E094DF109260000895BA9ABB9AC298C7
:1004B000C39A0895CF93DF931F92CDB7DEB798B359
:1004C0009923E9F38983E4DE28E030E0898180FF25
:1004D00002C0C39A01C0C3989DE09A95F1F700004D
:1004E000C29A95E19A95F1F70000C39A9CE09A951B
:1004F000F1F7C29899E19A95F1F70000869521509D
:10050000310929F7C3988DE08A95F1F70000C39A65
:100510008FE19EE40197F1F700C000000F90DF919A
:10052000CF91B8CEE82FF0E0662319F0E25EFF4FDE
:1005300002C0E256FF4F84910895CF93C42FE62F57
:10054000F0E0E256FF4F882331F08491B3DF6091F1
:1005500066006C2B08C084918068ACDF6C2F6095BE
:10056000809166006823609366008DEECF9179CF0D
:100570009CDE9BDF8BDE7894109262001092690003
:100580001092660080916200882341F180916200A0
:10059000883559F481E090916300911180E0809357
:1005A00063006091620044E00EC080916200873772
:1005B00061F481E090917200911180E0809372006B
:1005C0006091620042E0B9DF07C0609175008091E0
:1005D0006200A8DF80686EDF10926200809169007F
:1005E000882381F080916900883551F080916900FD
:1005F000873731F060916A008091690093DF5ADF9C
:100600001092690080916E00882359F080916C00EF
:10061000882329F080916B003EDF10926C001092CD
:100620006E0080917400882309F4ACCF10926C00A6
:1006300010927400A7CF0024552704C0080E591F3C
:10064000880F991F009729F076956795B8F3710583
:0C065000B9F7802D952F0895F894FFCF86
:00000001FF
